{
  "contractName": "MeTooVault",
  "abi": [
    {
      "constant": true,
      "inputs": [],
      "name": "getLatestMemory",
      "outputs": [
        {
          "name": "memoryString",
          "type": "string"
        },
        {
          "name": "timestamp",
          "type": "uint256"
        }
      ],
      "payable": false,
      "stateMutability": "view",
      "type": "function"
    },
    {
      "constant": true,
      "inputs": [],
      "name": "getNumberOfMemories",
      "outputs": [
        {
          "name": "numberOfMemories",
          "type": "uint256"
        }
      ],
      "payable": false,
      "stateMutability": "view",
      "type": "function"
    },
    {
      "constant": false,
      "inputs": [
        {
          "name": "memoryString",
          "type": "string"
        }
      ],
      "name": "embedMemory",
      "outputs": [
        {
          "name": "result",
          "type": "int256"
        }
      ],
      "payable": false,
      "stateMutability": "nonpayable",
      "type": "function"
    },
    {
      "inputs": [],
      "payable": false,
      "stateMutability": "nonpayable",
      "type": "constructor"
    }
  ],
  "bytecode": "0x6060604052341561000f57600080fd5b60008081905550610655806100256000396000f300606060405260043610610057576000357c0100000000000000000000000000000000000000000000000000000000900463ffffffff16806314c185dd1461005c5780631fe4e3e3146100f15780635624189c1461011a575b600080fd5b341561006757600080fd5b61006f61018b565b6040518080602001838152602001828103825284818151815260200191508051906020019080838360005b838110156100b557808201518184015260208101905061009a565b50505050905090810190601f1680156100e25780820380516001836020036101000a031916815260200191505b50935050505060405180910390f35b34156100fc57600080fd5b610104610386565b6040518082815260200191505060405180910390f35b341561012557600080fd5b610175600480803590602001908201803590602001908080601f0160208091040260200160405190810160405280939291908181526020018383808284378201915050505050509190505061038f565b6040518082815260200191505060405180910390f35b61019361048b565b600080600160003373ffffffffffffffffffffffffffffffffffffffff1673ffffffffffffffffffffffffffffffffffffffff16815260200190815260200160002080549050111561034157600160003373ffffffffffffffffffffffffffffffffffffffff1673ffffffffffffffffffffffffffffffffffffffff168152602001908152602001600020600081548110151561022c57fe5b9060005260206000209060020201600101600160003373ffffffffffffffffffffffffffffffffffffffff1673ffffffffffffffffffffffffffffffffffffffff168152602001908152602001600020600081548110151561028a57fe5b906000526020600020906002020160000154818054600181600116156101000203166002900480601f0160208091040260200160405190810160405280929190818152602001828054600181600116156101000203166002900480156103315780601f1061030657610100808354040283529160200191610331565b820191906000526020600020905b81548152906001019060200180831161031457829003601f168201915b5050505050915091509150610382565b60006040805190810160405280600481526020017f6e6f6e650000000000000000000000000000000000000000000000000000000081525090809050915091505b9091565b60008054905090565b600061039961049f565b612710835111156103cc577ffffffffffffffffffffffffffffffffffffffffffffffffffffffffffffffffe9150610485565b42816000018181525050828160200181905250600160003373ffffffffffffffffffffffffffffffffffffffff1673ffffffffffffffffffffffffffffffffffffffff168152602001908152602001600020805480600101828161043091906104bf565b9160005260206000209060020201600083909190915060008201518160000155602082015181600101908051906020019061046c9291906104f1565b5050505060016000808282540192505081905550600091505b50919050565b602060405190810160405280600081525090565b6040805190810160405280600081526020016104b9610571565b81525090565b8154818355818115116104ec576002028160020283600052602060002091820191016104eb9190610585565b5b505050565b828054600181600116156101000203166002900490600052602060002090601f016020900481019282601f1061053257805160ff1916838001178555610560565b82800160010185558215610560579182015b8281111561055f578251825591602001919060010190610544565b5b50905061056d91906105bc565b5090565b602060405190810160405280600081525090565b6105b991905b808211156105b5576000808201600090556001820160006105ac91906105e1565b5060020161058b565b5090565b90565b6105de91905b808211156105da5760008160009055506001016105c2565b5090565b90565b50805460018160011615610100020316600290046000825580601f106106075750610626565b601f01602090049060005260206000209081019061062591906105bc565b5b505600a165627a7a72305820c45087deeff305a382e6980a0e8f7346daba8d40d87c25609d46b6aaab5e523f0029",
  "source": "pragma solidity ^0.4.18;\n\n//noinspection ALL\ncontract MeTooVault {\n\n\tstruct Memory {\n\t\tuint timestamp;\n\t\tstring memoryString;\n\t}\n\n    uint _numberOfMemories;\n\n\tmapping (address => Memory[]) _memories;\n\n\tfunction MeTooVault() {\n\t    _numberOfMemories = 0;\n\t}\n\n\tfunction embedMemory(string memoryString) returns (int result) {\n        if (bytes(memoryString).length > 10000) {\n\t\t\tresult = -2;\n\t\t} else {\n\t\t    Memory memory _memory;\n            _memory.timestamp = now;\n            _memory.memoryString = memoryString;\n            _memories[msg.sender].push(_memory);\n\t\t\t_numberOfMemories+=1;\n\t\t\tresult = 0;\n\t\t}\n\t}\n\n\tfunction getLatestMemory() constant returns (string memoryString, uint timestamp) {\n\n\t\tif (_memories[msg.sender].length > 0){\n\t\t    return (_memories[msg.sender][0].memoryString, _memories[msg.sender][0].timestamp);\n\t\t}\n\t\telse\n\t\t{\n\t\t    return (\"none\", 0);\n\t\t}\n\t}\n\n\tfunction getNumberOfMemories() constant returns (uint numberOfMemories) {\n\t\treturn _numberOfMemories;\n\t}\n\n}",
  "sourcePath": "/Users/tren/Documents/Bitcoin/metoovault/contracts/MeTooVault.sol",
  "compiler": {
    "name": "solc",
    "version": "0.4.18+commit.9cf6e910.Emscripten.clang"
  },
  "schemaVersion": "1.0.1",
  "updatedAt": "2018-01-20T22:51:12.964Z"
}