{
  "contractName": "TweetAccount",
  "abi": [
    {
      "constant": true,
      "inputs": [],
      "name": "getLatestTweet",
      "outputs": [
        {
          "name": "tweetString",
          "type": "string"
        },
        {
          "name": "timestamp",
          "type": "uint256"
        },
        {
          "name": "numberOfTweets",
          "type": "uint256"
        }
      ],
      "payable": false,
      "stateMutability": "view",
      "type": "function"
    },
    {
      "constant": true,
      "inputs": [
        {
          "name": "tweetId",
          "type": "uint256"
        }
      ],
      "name": "getTweet",
      "outputs": [
        {
          "name": "tweetString",
          "type": "string"
        },
        {
          "name": "timestamp",
          "type": "uint256"
        }
      ],
      "payable": false,
      "stateMutability": "view",
      "type": "function"
    },
    {
      "constant": true,
      "inputs": [],
      "name": "getNumberOfTweets",
      "outputs": [
        {
          "name": "numberOfTweets",
          "type": "uint256"
        }
      ],
      "payable": false,
      "stateMutability": "view",
      "type": "function"
    },
    {
      "constant": false,
      "inputs": [
        {
          "name": "tweetString",
          "type": "string"
        }
      ],
      "name": "tweet",
      "outputs": [
        {
          "name": "result",
          "type": "int256"
        }
      ],
      "payable": false,
      "stateMutability": "nonpayable",
      "type": "function"
    },
    {
      "inputs": [],
      "payable": false,
      "stateMutability": "nonpayable",
      "type": "constructor"
    }
  ],
  "bytecode": "0x6060604052341561000f57600080fd5b6000600181905550610583806100266000396000f300606060405260043610610062576000357c0100000000000000000000000000000000000000000000000000000000900463ffffffff168063ae978f0814610067578063c3ad5ecb14610103578063ca7dc5b1146101a6578063fb46d4c5146101cf575b600080fd5b341561007257600080fd5b61007a610240565b6040518080602001848152602001838152602001828103825285818151815260200191508051906020019080838360005b838110156100c65780820151818401526020810190506100ab565b50505050905090810190601f1680156100f35780820380516001836020036101000a031916815260200191505b5094505050505060405180910390f35b341561010e57600080fd5b6101246004808035906020019091905050610325565b6040518080602001838152602001828103825284818151815260200191508051906020019080838360005b8381101561016a57808201518184015260208101905061014f565b50505050905090810190601f1680156101975780820380516001836020036101000a031916815260200191505b50935050505060405180910390f35b34156101b157600080fd5b6101b96103fc565b6040518082815260200191505060405180910390f35b34156101da57600080fd5b61022a600480803590602001908201803590602001908080601f01602080910402602001604051908101604052809392919081815260200183838082843782019150505050505091905050610406565b6040518082815260200191505060405180910390f35b61024861049e565b600080600080600180540381526020019081526020016000206001018054600181600116156101000203166002900480601f0160208091040260200160405190810160405280929190818152602001828054600181600116156101000203166002900480156102f85780601f106102cd576101008083540402835291602001916102f8565b820191906000526020600020905b8154815290600101906020018083116102db57829003601f168201915b50505050509250600080600180540381526020019081526020016000206000015491506001549050909192565b61032d61049e565b60008060008481526020019081526020016000206001018054600181600116156101000203166002900480601f0160208091040260200160405190810160405280929190818152602001828054600181600116156101000203166002900480156103d85780601f106103ad576101008083540402835291602001916103d8565b820191906000526020600020905b8154815290600101906020018083116103bb57829003601f168201915b50505050509150600080848152602001908152602001600020600001549050915091565b6000600154905090565b600060a08251111561043a577ffffffffffffffffffffffffffffffffffffffffffffffffffffffffffffffffe9050610499565b4260008060015481526020019081526020016000206000018190555081600080600154815260200190815260200160002060010190805190602001906104819291906104b2565b50600160008154809291906001019190505550600090505b919050565b602060405190810160405280600081525090565b828054600181600116156101000203166002900490600052602060002090601f016020900481019282601f106104f357805160ff1916838001178555610521565b82800160010185558215610521579182015b82811115610520578251825591602001919060010190610505565b5b50905061052e9190610532565b5090565b61055491905b80821115610550576000816000905550600101610538565b5090565b905600a165627a7a7230582056fb278f4c0e393d1f027d7e0b5d5267406ae62faf06c04785ad21644fbb44660029",
  "source": "pragma solidity ^0.4.17;\n\ncontract TweetAccount {\n\tstruct Tweet {\n\t\tuint timestamp;\n\t\tstring tweetString;\n\t}\n\n\t// \"array\" of all tweets of this account: maps the tweet id to the actual tweet\n\tmapping (uint => Tweet) _tweets;\n\n\t// total number of tweets in the above _tweets mapping\n\tuint _numberOfTweets;\n\n\n\n\t// constructor\n\tfunction TweetAccount() {\n\t\t_numberOfTweets = 0;\n\t}\n\n\n\t// create new tweet\n\tfunction tweet(string tweetString) returns (int result) {\n\n        if (bytes(tweetString).length > 160) {\n\t\t\t// tweet contains more than 160 bytes\n\t\t\tresult = -2;\n\t\t} else {\n\t\t\t_tweets[_numberOfTweets].timestamp = now;\n\t\t\t_tweets[_numberOfTweets].tweetString = tweetString;\n\t\t\t_numberOfTweets++;\n\t\t\tresult = 0; // success\n\t\t}\n\t}\n\n\tfunction getTweet(uint tweetId) constant returns (string tweetString, uint timestamp) {\n\t\t// returns two values\n\t\ttweetString = _tweets[tweetId].tweetString;\n\t\ttimestamp = _tweets[tweetId].timestamp;\n\t}\n\n\tfunction getLatestTweet() constant returns (string tweetString, uint timestamp, uint numberOfTweets) {\n\t\t// returns three values\n\t\ttweetString = _tweets[_numberOfTweets - 1].tweetString;\n\t\ttimestamp = _tweets[_numberOfTweets - 1].timestamp;\n\t\tnumberOfTweets = _numberOfTweets;\n\t}\n\n\tfunction getNumberOfTweets() constant returns (uint numberOfTweets) {\n\t\treturn _numberOfTweets;\n\t}\n\n}",
  "sourcePath": "/Users/tren/Documents/Bitcoin/metoovault/contracts/TweetAccount.sol",
  "compiler": {
    "name": "solc",
    "version": "0.4.18+commit.9cf6e910.Emscripten.clang"
  },
  "schemaVersion": "1.0.1",
  "updatedAt": "2018-01-14T07:18:53.316Z"
}